{
  "_format": "hh-sol-artifact-1",
  "contractName": "TrueBlockFlareOracle",
  "sourceName": "contracts/TrueBlockFlareOracle.sol",
  "abi": [
    {
      "inputs": [
        {
          "internalType": "address",
          "name": "_ftsoAddress",
          "type": "address"
        },
        {
          "internalType": "address",
          "name": "_fdcAddress",
          "type": "address"
        },
        {
          "internalType": "address",
          "name": "_secureRandomAddress",
          "type": "address"
        }
      ],
      "stateMutability": "nonpayable",
      "type": "constructor"
    },
    {
      "anonymous": false,
      "inputs": [
        {
          "indexed": false,
          "internalType": "string",
          "name": "mediaName",
          "type": "string"
        },
        {
          "indexed": false,
          "internalType": "uint256",
          "name": "newScore",
          "type": "uint256"
        }
      ],
      "name": "MediaCredibilityUpdated",
      "type": "event"
    },
    {
      "anonymous": false,
      "inputs": [
        {
          "indexed": true,
          "internalType": "bytes32",
          "name": "newsHash",
          "type": "bytes32"
        },
        {
          "indexed": false,
          "internalType": "string",
          "name": "sourceUrl",
          "type": "string"
        },
        {
          "indexed": false,
          "internalType": "uint256",
          "name": "timestamp",
          "type": "uint256"
        }
      ],
      "name": "NewsSubmitted",
      "type": "event"
    },
    {
      "anonymous": false,
      "inputs": [
        {
          "indexed": true,
          "internalType": "bytes32",
          "name": "newsHash",
          "type": "bytes32"
        },
        {
          "indexed": false,
          "internalType": "uint256",
          "name": "credibilityScore",
          "type": "uint256"
        }
      ],
      "name": "ValidationCompleted",
      "type": "event"
    },
    {
      "anonymous": false,
      "inputs": [
        {
          "indexed": true,
          "internalType": "address",
          "name": "validator",
          "type": "address"
        },
        {
          "indexed": false,
          "internalType": "uint256",
          "name": "stakedAmount",
          "type": "uint256"
        }
      ],
      "name": "ValidatorRegistered",
      "type": "event"
    },
    {
      "inputs": [],
      "name": "emergencyWithdraw",
      "outputs": [],
      "stateMutability": "nonpayable",
      "type": "function"
    },
    {
      "inputs": [],
      "name": "getEconomicContext",
      "outputs": [
        {
          "internalType": "uint256",
          "name": "btcPrice",
          "type": "uint256"
        },
        {
          "internalType": "uint256",
          "name": "ethPrice",
          "type": "uint256"
        },
        {
          "internalType": "uint256",
          "name": "usdcPrice",
          "type": "uint256"
        },
        {
          "internalType": "uint256",
          "name": "timestamp",
          "type": "uint256"
        }
      ],
      "stateMutability": "view",
      "type": "function"
    },
    {
      "inputs": [
        {
          "internalType": "string",
          "name": "_mediaName",
          "type": "string"
        }
      ],
      "name": "getMediaCredibility",
      "outputs": [
        {
          "internalType": "uint256",
          "name": "credibilityScore",
          "type": "uint256"
        },
        {
          "internalType": "uint256",
          "name": "validationsCount",
          "type": "uint256"
        },
        {
          "internalType": "uint256",
          "name": "lastUpdate",
          "type": "uint256"
        },
        {
          "internalType": "bool",
          "name": "isVerified",
          "type": "bool"
        }
      ],
      "stateMutability": "view",
      "type": "function"
    },
    {
      "inputs": [
        {
          "internalType": "string",
          "name": "_symbol",
          "type": "string"
        }
      ],
      "name": "getPriceFromFTSO",
      "outputs": [
        {
          "internalType": "uint256",
          "name": "",
          "type": "uint256"
        }
      ],
      "stateMutability": "view",
      "type": "function"
    },
    {
      "inputs": [],
      "name": "getSecureRandomNumber",
      "outputs": [
        {
          "internalType": "bytes32",
          "name": "",
          "type": "bytes32"
        }
      ],
      "stateMutability": "view",
      "type": "function"
    },
    {
      "inputs": [
        {
          "internalType": "bytes32",
          "name": "_newsHash",
          "type": "bytes32"
        }
      ],
      "name": "getValidation",
      "outputs": [
        {
          "internalType": "string",
          "name": "sourceUrl",
          "type": "string"
        },
        {
          "internalType": "uint256",
          "name": "timestamp",
          "type": "uint256"
        },
        {
          "internalType": "uint256",
          "name": "credibilityScore",
          "type": "uint256"
        },
        {
          "internalType": "uint256",
          "name": "priceContext",
          "type": "uint256"
        },
        {
          "internalType": "bool",
          "name": "isValidated",
          "type": "bool"
        },
        {
          "internalType": "uint256",
          "name": "validatorCount",
          "type": "uint256"
        }
      ],
      "stateMutability": "view",
      "type": "function"
    },
    {
      "inputs": [
        {
          "internalType": "address",
          "name": "_validator",
          "type": "address"
        }
      ],
      "name": "getValidatorProfile",
      "outputs": [
        {
          "internalType": "uint256",
          "name": "reputation",
          "type": "uint256"
        },
        {
          "internalType": "uint256",
          "name": "validationsCount",
          "type": "uint256"
        },
        {
          "internalType": "uint256",
          "name": "stakedAmount",
          "type": "uint256"
        },
        {
          "internalType": "bool",
          "name": "isActive",
          "type": "bool"
        }
      ],
      "stateMutability": "view",
      "type": "function"
    },
    {
      "inputs": [
        {
          "internalType": "string",
          "name": "",
          "type": "string"
        }
      ],
      "name": "mediaCredibility",
      "outputs": [
        {
          "internalType": "string",
          "name": "mediaName",
          "type": "string"
        },
        {
          "internalType": "uint256",
          "name": "credibilityScore",
          "type": "uint256"
        },
        {
          "internalType": "uint256",
          "name": "validationsCount",
          "type": "uint256"
        },
        {
          "internalType": "uint256",
          "name": "lastUpdate",
          "type": "uint256"
        },
        {
          "internalType": "bool",
          "name": "isVerified",
          "type": "bool"
        }
      ],
      "stateMutability": "view",
      "type": "function"
    },
    {
      "inputs": [],
      "name": "owner",
      "outputs": [
        {
          "internalType": "address",
          "name": "",
          "type": "address"
        }
      ],
      "stateMutability": "view",
      "type": "function"
    },
    {
      "inputs": [],
      "name": "registerValidator",
      "outputs": [],
      "stateMutability": "payable",
      "type": "function"
    },
    {
      "inputs": [
        {
          "internalType": "bytes32",
          "name": "_newsHash",
          "type": "bytes32"
        },
        {
          "internalType": "string",
          "name": "_sourceUrl",
          "type": "string"
        },
        {
          "internalType": "string",
          "name": "_priceSymbol",
          "type": "string"
        }
      ],
      "name": "submitNewsForValidation",
      "outputs": [],
      "stateMutability": "nonpayable",
      "type": "function"
    },
    {
      "inputs": [
        {
          "internalType": "address",
          "name": "_newFtso",
          "type": "address"
        },
        {
          "internalType": "address",
          "name": "_newFdc",
          "type": "address"
        },
        {
          "internalType": "address",
          "name": "_newSecureRandom",
          "type": "address"
        }
      ],
      "name": "updateInterfaces",
      "outputs": [],
      "stateMutability": "nonpayable",
      "type": "function"
    },
    {
      "inputs": [
        {
          "internalType": "string",
          "name": "_mediaName",
          "type": "string"
        },
        {
          "internalType": "bytes32",
          "name": "_webDataHash",
          "type": "bytes32"
        },
        {
          "internalType": "bytes32[]",
          "name": "_merkleProof",
          "type": "bytes32[]"
        }
      ],
      "name": "updateMediaCredibility",
      "outputs": [],
      "stateMutability": "nonpayable",
      "type": "function"
    },
    {
      "inputs": [
        {
          "internalType": "bytes32",
          "name": "_newsHash",
          "type": "bytes32"
        },
        {
          "internalType": "bytes32",
          "name": "_attestationData",
          "type": "bytes32"
        },
        {
          "internalType": "bytes32[]",
          "name": "_merkleProof",
          "type": "bytes32[]"
        }
      ],
      "name": "validateNewsWithFDC",
      "outputs": [],
      "stateMutability": "nonpayable",
      "type": "function"
    },
    {
      "inputs": [
        {
          "internalType": "bytes32",
          "name": "",
          "type": "bytes32"
        }
      ],
      "name": "validations",
      "outputs": [
        {
          "internalType": "bytes32",
          "name": "newsHash",
          "type": "bytes32"
        },
        {
          "internalType": "string",
          "name": "sourceUrl",
          "type": "string"
        },
        {
          "internalType": "uint256",
          "name": "timestamp",
          "type": "uint256"
        },
        {
          "internalType": "uint256",
          "name": "credibilityScore",
          "type": "uint256"
        },
        {
          "internalType": "uint256",
          "name": "priceContext",
          "type": "uint256"
        },
        {
          "internalType": "bytes32",
          "name": "randomSeed",
          "type": "bytes32"
        },
        {
          "internalType": "bool",
          "name": "isValidated",
          "type": "bool"
        }
      ],
      "stateMutability": "view",
      "type": "function"
    },
    {
      "inputs": [
        {
          "internalType": "address",
          "name": "",
          "type": "address"
        }
      ],
      "name": "validators",
      "outputs": [
        {
          "internalType": "uint256",
          "name": "reputation",
          "type": "uint256"
        },
        {
          "internalType": "uint256",
          "name": "validationsCount",
          "type": "uint256"
        },
        {
          "internalType": "uint256",
          "name": "stakedAmount",
          "type": "uint256"
        },
        {
          "internalType": "bool",
          "name": "isActive",
          "type": "bool"
        }
      ],
      "stateMutability": "view",
      "type": "function"
    },
    {
      "inputs": [],
      "name": "withdrawStake",
      "outputs": [],
      "stateMutability": "nonpayable",
      "type": "function"
    }
  ],
  "bytecode": "0x60806040523480156200001157600080fd5b50604051620019353803806200193583398101604081905262000034916200009f565b600380546001600160a01b03199081163317909155600080546001600160a01b03958616908316179055600180549385169382169390931790925560028054919093169116179055620000e9565b80516001600160a01b03811681146200009a57600080fd5b919050565b600080600060608486031215620000b557600080fd5b620000c08462000082565b9250620000d06020850162000082565b9150620000e06040850162000082565b90509250925092565b61183c80620000f96000396000f3fe6080604052600436106100fe5760003560e01c8063ab149fd611610095578063db2e21bc11610064578063db2e21bc14610301578063e28c380214610316578063e45ffdb414610349578063ef1e894d1461035e578063fa52c7d81461039357600080fd5b8063ab149fd6146102a4578063bcc6587f146102c4578063be8d1765146102cc578063bed9d861146102ec57600080fd5b806374d34581116100d157806374d34581146101fa5780637e0e2c5f1461021a5780638da5cb5b1461023a578063a8091fc31461027257600080fd5b80630f29ac851461010357806330752ad41461017957806351841326146101a757806364876847146101c9575b600080fd5b34801561010f57600080fd5b5061015261011e3660046110fa565b6001600160a01b03166000908152600660205260409020805460018201546002830154600390930154919390929160ff1690565b60408051948552602085019390935291830152151560608201526080015b60405180910390f35b34801561018557600080fd5b506101996101943660046111d3565b6103d8565b604051908152602001610170565b3480156101b357600080fd5b506101c76101c2366004611210565b610474565b005b3480156101d557600080fd5b506101e96101e43660046111d3565b610564565b6040516101709594939291906112cd565b34801561020657600080fd5b506101c761021536600461137b565b610629565b34801561022657600080fd5b506101c76102353660046113de565b61072c565b34801561024657600080fd5b5060035461025a906001600160a01b031681565b6040516001600160a01b039091168152602001610170565b34801561027e57600080fd5b5061029261028d366004611421565b6107dc565b6040516101709695949392919061143a565b3480156102b057600080fd5b506101c76102bf366004611478565b6108c2565b6101c7610b14565b3480156102d857600080fd5b506101526102e73660046111d3565b610c56565b3480156102f857600080fd5b506101c7610ca7565b34801561030d57600080fd5b506101c7610d9a565b34801561032257600080fd5b50610336610331366004611421565b610e00565b60405161017097969594939291906114be565b34801561035557600080fd5b50610199610ec7565b34801561036a57600080fd5b50610373610f99565b604080519485526020850193909352918301526060820152608001610170565b34801561039f57600080fd5b506101526103ae3660046110fa565b60066020526000908152604090208054600182015460028301546003909301549192909160ff1684565b6000806103e483611503565b600054604051634ca8fcb760e01b81526affffffffffffffffffffff19831660048201529192506001600160a01b031690634ca8fcb790602401606060405180830381865afa925050508015610457575060408051601f3d908101601f191682019092526104549181019061153e565b60015b6104645750600092915050565b5090949350505050565b50919050565b826104c65760405162461bcd60e51b815260206004820152601860248201527f48617368206465206e6f746963696120696e76616c69646f000000000000000060448201526064015b60405180910390fd5b60006104d1826103d8565b905060006104dd610ec7565b6000868152600460205260409020868155909150600181016104ff8682611618565b504260028201819055600482018490556005820183905560068201805460ff1916905560405187917ff3f6f1c695a5e5ce0260e6c408c918febe73ca3384e5e18b9aa0bfba850ec07d916105549189916116d8565b60405180910390a2505050505050565b805160208183018101805160058252928201919093012091528054819061058a90611594565b80601f01602080910402602001604051908101604052809291908181526020018280546105b690611594565b80156106035780601f106105d857610100808354040283529160200191610603565b820191906000526020600020905b8154815290600101906020018083116105e657829003601f168201915b505050506001830154600284015460038501546004909501549394919390925060ff1685565b6000610635838361101b565b90508061067b5760405162461bcd60e51b81526020600482015260146024820152734461746f73205765623220696e76616c69646f7360601b60448201526064016104bd565b600060058560405161068d91906116fa565b9081526020016040518091039020905060006106a98686611024565b9050816106b68782611618565b50600182018190556002820180549060006106d08361172c565b909155505042600383015560048201805460ff191660011790556040517f525c65a09fb2adf42d8b868c85089a100386f47bf706dfccbf70c470b68933da9061071c90889084906116d8565b60405180910390a1505050505050565b6003546001600160a01b031633146107565760405162461bcd60e51b81526004016104bd90611745565b6001600160a01b0383161561078157600080546001600160a01b0319166001600160a01b0385161790555b6001600160a01b038216156107ac57600180546001600160a01b0319166001600160a01b0384161790555b6001600160a01b038116156107d757600280546001600160a01b0319166001600160a01b0383161790555b505050565b6000818152600460208190526040822060028101546003820154928201546006830154600784015460018501805460609897889788978897889792969194909260ff169190869061082c90611594565b80601f016020809104026020016040519081016040528092919081815260200182805461085890611594565b80156108a55780601f1061087a576101008083540402835291602001916108a5565b820191906000526020600020905b81548152906001019060200180831161088857829003601f168201915b505050505095509650965096509650965096505091939550919395565b3360009081526006602052604090206003015460ff1661091a5760405162461bcd60e51b815260206004820152601360248201527256616c696461646f72206e6f2061637469766f60681b60448201526064016104bd565b6000838152600460205260409020600681015460ff16156109735760405162461bcd60e51b81526020600482015260136024820152724e6f74696369612079612076616c696461646160681b60448201526064016104bd565b33600090815260088201602052604090205460ff16156109d55760405162461bcd60e51b815260206004820152601960248201527f59612076616c6964617374652065737461206e6f74696369610000000000000060448201526064016104bd565b60006109e1848461101b565b905080610a265760405162461bcd60e51b81526020600482015260136024820152724461746f732046444320696e76616c69646f7360681b60448201526064016104bd565b600782018054600181810183556000928352602080842090920180546001600160a01b0319163390811790915583526008850182526040808420805460ff191683179055600690925290822001805491610a7f8361172c565b90915550503360009081526006602052604081208054600a9290610aa490849061178e565b90915550506007820154600311610b0d576000610ac086611049565b6003840181905560068401805460ff1916600117905560405190915086907ff647030a90d518a3c8f8dbf9654946fe7fde536f3491b740c8eae535169274fa906105549084815260200190565b5050505050565b67016345785d8a0000341015610b655760405162461bcd60e51b81526020600482015260166024820152755374616b65206d696e696d6f2072657175657269646f60501b60448201526064016104bd565b3360009081526006602052604090206003015460ff1615610bc85760405162461bcd60e51b815260206004820152601760248201527f56616c696461646f72207961207265676973747261646f00000000000000000060448201526064016104bd565b604080516080810182526064815260006020808301828152348486018181526001606087018181523380885260068752968990209751885593519087015551600286015590516003909401805460ff1916941515949094179093559251918252917fb4a7f5c563a0e35593d156394ed681bdc9c39467d7d722749d23862c2e4b712c910160405180910390a2565b6000806000806000600586604051610c6e91906116fa565b908152604051908190036020019020600181015460028201546003830154600490930154919750955090935060ff169150509193509193565b336000908152600660205260409020600381015460ff16610d005760405162461bcd60e51b815260206004820152601360248201527256616c696461646f72206e6f2061637469766f60681b60448201526064016104bd565b6000816002015411610d545760405162461bcd60e51b815260206004820152601960248201527f4e6f20686179207374616b65207061726120726574697261720000000000000060448201526064016104bd565b60028101805460009182905560038301805460ff191690556040519091339183156108fc0291849190818181858888f193505050501580156107d7573d6000803e3d6000fd5b6003546001600160a01b03163314610dc45760405162461bcd60e51b81526004016104bd90611745565b6003546040516001600160a01b03909116904780156108fc02916000818181858888f19350505050158015610dfd573d6000803e3d6000fd5b50565b60046020526000908152604090208054600182018054919291610e2290611594565b80601f0160208091040260200160405190810160405280929190818152602001828054610e4e90611594565b8015610e9b5780601f10610e7057610100808354040283529160200191610e9b565b820191906000526020600020905b815481529060010190602001808311610e7e57829003601f168201915b505050600284015460038501546004860154600587015460069097015495969295919450925060ff1687565b6002546040805163dbdff2c160e01b815290516000926001600160a01b03169163dbdff2c19160048083019260209291908290030181865afa925050508015610f2d575060408051601f3d908101601f19168201909252610f2a918101906117a1565b60015b610f615760408051426020820152449181019190915260600160405160208183030381529060405280519060200120905090565b8042604051602001610f7d929190918252602082015260400190565b6040516020818303038152906040528051906020012091505090565b600080600080610fc36040518060400160405280600381526020016242544360e81b8152506103d8565b9350610fe96040518060400160405280600381526020016208aa8960eb1b8152506103d8565b9250611010604051806040016040528060048152602001635553444360e01b8152506103d8565b915042905090919293565b60015b92915050565b6000603c816110346028856117ba565b9050611040818361178e565b95945050505050565b60008181526004602052604081206007810154603290839061106c90600a6117dc565b90506000610e1084600201544261108391906117f3565b1061108f576000611092565b60145b60ff1690506000808560040154116110ab5760006110ae565b600f5b60ff16905080826110bf858761178e565b6110c9919061178e565b6110d3919061178e565b979650505050505050565b80356001600160a01b03811681146110f557600080fd5b919050565b60006020828403121561110c57600080fd5b611115826110de565b9392505050565b634e487b7160e01b600052604160045260246000fd5b604051601f8201601f1916810167ffffffffffffffff8111828210171561115b5761115b61111c565b604052919050565b600082601f83011261117457600080fd5b813567ffffffffffffffff81111561118e5761118e61111c565b6111a1601f8201601f1916602001611132565b8181528460208386010111156111b657600080fd5b816020850160208301376000918101602001919091529392505050565b6000602082840312156111e557600080fd5b813567ffffffffffffffff8111156111fc57600080fd5b61120884828501611163565b949350505050565b60008060006060848603121561122557600080fd5b83359250602084013567ffffffffffffffff8082111561124457600080fd5b61125087838801611163565b9350604086013591508082111561126657600080fd5b5061127386828701611163565b9150509250925092565b60005b83811015611298578181015183820152602001611280565b50506000910152565b600081518084526112b981602086016020860161127d565b601f01601f19169290920160200192915050565b60a0815260006112e060a08301886112a1565b905085602083015284604083015283606083015282151560808301529695505050505050565b600082601f83011261131757600080fd5b8135602067ffffffffffffffff8211156113335761133361111c565b8160051b611342828201611132565b928352848101820192828101908785111561135c57600080fd5b83870192505b848310156110d357823582529183019190830190611362565b60008060006060848603121561139057600080fd5b833567ffffffffffffffff808211156113a857600080fd5b6113b487838801611163565b94506020860135935060408601359150808211156113d157600080fd5b5061127386828701611306565b6000806000606084860312156113f357600080fd5b6113fc846110de565b925061140a602085016110de565b9150611418604085016110de565b90509250925092565b60006020828403121561143357600080fd5b5035919050565b60c08152600061144d60c08301896112a1565b602083019790975250604081019490945260608401929092521515608083015260a090910152919050565b60008060006060848603121561148d57600080fd5b8335925060208401359150604084013567ffffffffffffffff8111156114b257600080fd5b61127386828701611306565b87815260e0602082015260006114d760e08301896112a1565b6040830197909752506060810194909452608084019290925260a0830152151560c09091015292915050565b805160208201516affffffffffffffffffffff1980821692919060158310156115365780818460150360031b1b83161693505b505050919050565b60008060006060848603121561155357600080fd5b8351925060208401518060000b811461156b57600080fd5b604085015190925067ffffffffffffffff8116811461158957600080fd5b809150509250925092565b600181811c908216806115a857607f821691505b60208210810361046e57634e487b7160e01b600052602260045260246000fd5b601f8211156107d7576000816000526020600020601f850160051c810160208610156115f15750805b601f850160051c820191505b81811015611610578281556001016115fd565b505050505050565b815167ffffffffffffffff8111156116325761163261111c565b611646816116408454611594565b846115c8565b602080601f83116001811461167b57600084156116635750858301515b600019600386901b1c1916600185901b178555611610565b600085815260208120601f198616915b828110156116aa5788860151825594840194600190910190840161168b565b50858210156116c85787850151600019600388901b60f8161c191681555b5050505050600190811b01905550565b6040815260006116eb60408301856112a1565b90508260208301529392505050565b6000825161170c81846020870161127d565b9190910192915050565b634e487b7160e01b600052601160045260246000fd5b60006001820161173e5761173e611716565b5060010190565b60208082526029908201527f536f6c6f20656c206f776e657220707565646520656a656375746172206573746040820152683090333ab731b4b7b760b91b606082015260800190565b8082018082111561101e5761101e611716565b6000602082840312156117b357600080fd5b5051919050565b6000826117d757634e487b7160e01b600052601260045260246000fd5b500690565b808202811582820484141761101e5761101e611716565b8181038181111561101e5761101e61171656fea2646970667358221220359c8bf954c7d042bd0d7a0a4cd494d80504c17e89de7f948adb7cff0552722264736f6c63430008180033",
  "linkReferences": {},
  "deployedLinkReferences": {}
}